{
  "_format": "hh-sol-artifact-1",
  "contractName": "MemeToken",
  "sourceName": "contracts/MemeToken.sol",
  "abi": [
    {
      "inputs": [
        {
          "internalType": "string",
          "name": "name",
          "type": "string"
        },
        {
          "internalType": "string",
          "name": "symbol",
          "type": "string"
        },
        {
          "internalType": "uint256",
          "name": "initialSupply",
          "type": "uint256"
        },
        {
          "internalType": "string",
          "name": "description",
          "type": "string"
        }
      ],
      "stateMutability": "nonpayable",
      "type": "constructor"
    },
    {
      "inputs": [
        {
          "internalType": "address",
          "name": "spender",
          "type": "address"
        },
        {
          "internalType": "uint256",
          "name": "allowance",
          "type": "uint256"
        },
        {
          "internalType": "uint256",
          "name": "needed",
          "type": "uint256"
        }
      ],
      "name": "ERC20InsufficientAllowance",
      "type": "error"
    },
    {
      "inputs": [
        {
          "internalType": "address",
          "name": "sender",
          "type": "address"
        },
        {
          "internalType": "uint256",
          "name": "balance",
          "type": "uint256"
        },
        {
          "internalType": "uint256",
          "name": "needed",
          "type": "uint256"
        }
      ],
      "name": "ERC20InsufficientBalance",
      "type": "error"
    },
    {
      "inputs": [
        {
          "internalType": "address",
          "name": "approver",
          "type": "address"
        }
      ],
      "name": "ERC20InvalidApprover",
      "type": "error"
    },
    {
      "inputs": [
        {
          "internalType": "address",
          "name": "receiver",
          "type": "address"
        }
      ],
      "name": "ERC20InvalidReceiver",
      "type": "error"
    },
    {
      "inputs": [
        {
          "internalType": "address",
          "name": "sender",
          "type": "address"
        }
      ],
      "name": "ERC20InvalidSender",
      "type": "error"
    },
    {
      "inputs": [
        {
          "internalType": "address",
          "name": "spender",
          "type": "address"
        }
      ],
      "name": "ERC20InvalidSpender",
      "type": "error"
    },
    {
      "inputs": [
        {
          "internalType": "address",
          "name": "owner",
          "type": "address"
        }
      ],
      "name": "OwnableInvalidOwner",
      "type": "error"
    },
    {
      "inputs": [
        {
          "internalType": "address",
          "name": "account",
          "type": "address"
        }
      ],
      "name": "OwnableUnauthorizedAccount",
      "type": "error"
    },
    {
      "anonymous": false,
      "inputs": [
        {
          "indexed": true,
          "internalType": "address",
          "name": "owner",
          "type": "address"
        },
        {
          "indexed": true,
          "internalType": "address",
          "name": "spender",
          "type": "address"
        },
        {
          "indexed": false,
          "internalType": "uint256",
          "name": "value",
          "type": "uint256"
        }
      ],
      "name": "Approval",
      "type": "event"
    },
    {
      "anonymous": false,
      "inputs": [
        {
          "indexed": true,
          "internalType": "address",
          "name": "previousOwner",
          "type": "address"
        },
        {
          "indexed": true,
          "internalType": "address",
          "name": "newOwner",
          "type": "address"
        }
      ],
      "name": "OwnershipTransferred",
      "type": "event"
    },
    {
      "anonymous": false,
      "inputs": [
        {
          "indexed": true,
          "internalType": "address",
          "name": "from",
          "type": "address"
        },
        {
          "indexed": true,
          "internalType": "address",
          "name": "to",
          "type": "address"
        },
        {
          "indexed": false,
          "internalType": "uint256",
          "name": "value",
          "type": "uint256"
        }
      ],
      "name": "Transfer",
      "type": "event"
    },
    {
      "inputs": [],
      "name": "MAX_SUPPLY",
      "outputs": [
        {
          "internalType": "uint256",
          "name": "",
          "type": "uint256"
        }
      ],
      "stateMutability": "view",
      "type": "function"
    },
    {
      "inputs": [
        {
          "internalType": "address",
          "name": "owner",
          "type": "address"
        },
        {
          "internalType": "address",
          "name": "spender",
          "type": "address"
        }
      ],
      "name": "allowance",
      "outputs": [
        {
          "internalType": "uint256",
          "name": "",
          "type": "uint256"
        }
      ],
      "stateMutability": "view",
      "type": "function"
    },
    {
      "inputs": [
        {
          "internalType": "address",
          "name": "spender",
          "type": "address"
        },
        {
          "internalType": "uint256",
          "name": "value",
          "type": "uint256"
        }
      ],
      "name": "approve",
      "outputs": [
        {
          "internalType": "bool",
          "name": "",
          "type": "bool"
        }
      ],
      "stateMutability": "nonpayable",
      "type": "function"
    },
    {
      "inputs": [
        {
          "internalType": "address",
          "name": "account",
          "type": "address"
        }
      ],
      "name": "balanceOf",
      "outputs": [
        {
          "internalType": "uint256",
          "name": "",
          "type": "uint256"
        }
      ],
      "stateMutability": "view",
      "type": "function"
    },
    {
      "inputs": [
        {
          "internalType": "uint256",
          "name": "value",
          "type": "uint256"
        }
      ],
      "name": "burn",
      "outputs": [],
      "stateMutability": "nonpayable",
      "type": "function"
    },
    {
      "inputs": [
        {
          "internalType": "address",
          "name": "account",
          "type": "address"
        },
        {
          "internalType": "uint256",
          "name": "value",
          "type": "uint256"
        }
      ],
      "name": "burnFrom",
      "outputs": [],
      "stateMutability": "nonpayable",
      "type": "function"
    },
    {
      "inputs": [],
      "name": "decimals",
      "outputs": [
        {
          "internalType": "uint8",
          "name": "",
          "type": "uint8"
        }
      ],
      "stateMutability": "view",
      "type": "function"
    },
    {
      "inputs": [],
      "name": "memeDescription",
      "outputs": [
        {
          "internalType": "string",
          "name": "",
          "type": "string"
        }
      ],
      "stateMutability": "view",
      "type": "function"
    },
    {
      "inputs": [
        {
          "internalType": "address",
          "name": "to",
          "type": "address"
        },
        {
          "internalType": "uint256",
          "name": "amount",
          "type": "uint256"
        }
      ],
      "name": "mint",
      "outputs": [],
      "stateMutability": "nonpayable",
      "type": "function"
    },
    {
      "inputs": [],
      "name": "name",
      "outputs": [
        {
          "internalType": "string",
          "name": "",
          "type": "string"
        }
      ],
      "stateMutability": "view",
      "type": "function"
    },
    {
      "inputs": [],
      "name": "owner",
      "outputs": [
        {
          "internalType": "address",
          "name": "",
          "type": "address"
        }
      ],
      "stateMutability": "view",
      "type": "function"
    },
    {
      "inputs": [],
      "name": "renounceOwnership",
      "outputs": [],
      "stateMutability": "nonpayable",
      "type": "function"
    },
    {
      "inputs": [],
      "name": "symbol",
      "outputs": [
        {
          "internalType": "string",
          "name": "",
          "type": "string"
        }
      ],
      "stateMutability": "view",
      "type": "function"
    },
    {
      "inputs": [],
      "name": "totalSupply",
      "outputs": [
        {
          "internalType": "uint256",
          "name": "",
          "type": "uint256"
        }
      ],
      "stateMutability": "view",
      "type": "function"
    },
    {
      "inputs": [
        {
          "internalType": "address",
          "name": "to",
          "type": "address"
        },
        {
          "internalType": "uint256",
          "name": "value",
          "type": "uint256"
        }
      ],
      "name": "transfer",
      "outputs": [
        {
          "internalType": "bool",
          "name": "",
          "type": "bool"
        }
      ],
      "stateMutability": "nonpayable",
      "type": "function"
    },
    {
      "inputs": [
        {
          "internalType": "address",
          "name": "from",
          "type": "address"
        },
        {
          "internalType": "address",
          "name": "to",
          "type": "address"
        },
        {
          "internalType": "uint256",
          "name": "value",
          "type": "uint256"
        }
      ],
      "name": "transferFrom",
      "outputs": [
        {
          "internalType": "bool",
          "name": "",
          "type": "bool"
        }
      ],
      "stateMutability": "nonpayable",
      "type": "function"
    },
    {
      "inputs": [
        {
          "internalType": "address",
          "name": "newOwner",
          "type": "address"
        }
      ],
      "name": "transferOwnership",
      "outputs": [],
      "stateMutability": "nonpayable",
      "type": "function"
    },
    {
      "inputs": [
        {
          "internalType": "string",
          "name": "newDescription",
          "type": "string"
        }
      ],
      "name": "updateDescription",
      "outputs": [],
      "stateMutability": "nonpayable",
      "type": "function"
    }
  ],
  "bytecode": "0x60806040523480156200001157600080fd5b5060405162002585380380620025858339818101604052810190620000379190620006b8565b33848481600390816200004b9190620009c8565b5080600490816200005d9190620009c8565b505050600073ffffffffffffffffffffffffffffffffffffffff168173ffffffffffffffffffffffffffffffffffffffff1603620000d55760006040517f1e4fbdf7000000000000000000000000000000000000000000000000000000008152600401620000cc919062000af4565b60405180910390fd5b620000e6816200016760201b60201c565b508060069081620000f89190620009c8565b506b033b2e3c9fd0803ce80000008211156200014b576040517f08c379a0000000000000000000000000000000000000000000000000000000008152600401620001429062000b98565b60405180910390fd5b6200015d33836200022d60201b60201c565b5050505062000c8f565b6000600560009054906101000a900473ffffffffffffffffffffffffffffffffffffffff16905081600560006101000a81548173ffffffffffffffffffffffffffffffffffffffff021916908373ffffffffffffffffffffffffffffffffffffffff1602179055508173ffffffffffffffffffffffffffffffffffffffff168173ffffffffffffffffffffffffffffffffffffffff167f8be0079c531659141344cd1fd0a4f28419497f9722a3daafe3b4186f6b6457e060405160405180910390a35050565b600073ffffffffffffffffffffffffffffffffffffffff168273ffffffffffffffffffffffffffffffffffffffff1603620002a25760006040517fec442f0500000000000000000000000000000000000000000000000000000000815260040162000299919062000af4565b60405180910390fd5b620002b660008383620002ba60201b60201c565b5050565b600073ffffffffffffffffffffffffffffffffffffffff168373ffffffffffffffffffffffffffffffffffffffff16036200031057806002600082825462000303919062000be9565b92505081905550620003e6565b60008060008573ffffffffffffffffffffffffffffffffffffffff1673ffffffffffffffffffffffffffffffffffffffff168152602001908152602001600020549050818110156200039f578381836040517fe450d38c000000000000000000000000000000000000000000000000000000008152600401620003969392919062000c35565b60405180910390fd5b8181036000808673ffffffffffffffffffffffffffffffffffffffff1673ffffffffffffffffffffffffffffffffffffffff16815260200190815260200160002081905550505b600073ffffffffffffffffffffffffffffffffffffffff168273ffffffffffffffffffffffffffffffffffffffff16036200043157806002600082825403925050819055506200047e565b806000808473ffffffffffffffffffffffffffffffffffffffff1673ffffffffffffffffffffffffffffffffffffffff168152602001908152602001600020600082825401925050819055505b8173ffffffffffffffffffffffffffffffffffffffff168373ffffffffffffffffffffffffffffffffffffffff167fddf252ad1be2c89b69c2b068fc378daa952ba7f163c4a11628f55a4df523b3ef83604051620004dd919062000c72565b60405180910390a3505050565b6000604051905090565b600080fd5b600080fd5b600080fd5b600080fd5b6000601f19601f8301169050919050565b7f4e487b7100000000000000000000000000000000000000000000000000000000600052604160045260246000fd5b620005538262000508565b810181811067ffffffffffffffff8211171562000575576200057462000519565b5b80604052505050565b60006200058a620004ea565b905062000598828262000548565b919050565b600067ffffffffffffffff821115620005bb57620005ba62000519565b5b620005c68262000508565b9050602081019050919050565b60005b83811015620005f3578082015181840152602081019050620005d6565b60008484015250505050565b60006200061662000610846200059d565b6200057e565b90508281526020810184848401111562000635576200063462000503565b5b62000642848285620005d3565b509392505050565b600082601f830112620006625762000661620004fe565b5b815162000674848260208601620005ff565b91505092915050565b6000819050919050565b62000692816200067d565b81146200069e57600080fd5b50565b600081519050620006b28162000687565b92915050565b60008060008060808587031215620006d557620006d4620004f4565b5b600085015167ffffffffffffffff811115620006f657620006f5620004f9565b5b62000704878288016200064a565b945050602085015167ffffffffffffffff811115620007285762000727620004f9565b5b62000736878288016200064a565b93505060406200074987828801620006a1565b925050606085015167ffffffffffffffff8111156200076d576200076c620004f9565b5b6200077b878288016200064a565b91505092959194509250565b600081519050919050565b7f4e487b7100000000000000000000000000000000000000000000000000000000600052602260045260246000fd5b60006002820490506001821680620007da57607f821691505b602082108103620007f057620007ef62000792565b5b50919050565b60008190508160005260206000209050919050565b60006020601f8301049050919050565b600082821b905092915050565b6000600883026200085a7fffffffffffffffffffffffffffffffffffffffffffffffffffffffffffffffff826200081b565b6200086686836200081b565b95508019841693508086168417925050509392505050565b6000819050919050565b6000620008a9620008a36200089d846200067d565b6200087e565b6200067d565b9050919050565b6000819050919050565b620008c58362000888565b620008dd620008d482620008b0565b84845462000828565b825550505050565b600090565b620008f4620008e5565b62000901818484620008ba565b505050565b5b8181101562000929576200091d600082620008ea565b60018101905062000907565b5050565b601f82111562000978576200094281620007f6565b6200094d846200080b565b810160208510156200095d578190505b620009756200096c856200080b565b83018262000906565b50505b505050565b600082821c905092915050565b60006200099d600019846008026200097d565b1980831691505092915050565b6000620009b883836200098a565b9150826002028217905092915050565b620009d38262000787565b67ffffffffffffffff811115620009ef57620009ee62000519565b5b620009fb8254620007c1565b62000a088282856200092d565b600060209050601f83116001811462000a40576000841562000a2b578287015190505b62000a378582620009aa565b86555062000aa7565b601f19841662000a5086620007f6565b60005b8281101562000a7a5784890151825560018201915060208501945060208101905062000a53565b8683101562000a9a578489015162000a96601f8916826200098a565b8355505b6001600288020188555050505b505050505050565b600073ffffffffffffffffffffffffffffffffffffffff82169050919050565b600062000adc8262000aaf565b9050919050565b62000aee8162000acf565b82525050565b600060208201905062000b0b600083018462000ae3565b92915050565b600082825260208201905092915050565b7f496e697469616c20737570706c792065786365656473206d617820737570706c60008201527f7900000000000000000000000000000000000000000000000000000000000000602082015250565b600062000b8060218362000b11565b915062000b8d8262000b22565b604082019050919050565b6000602082019050818103600083015262000bb38162000b71565b9050919050565b7f4e487b7100000000000000000000000000000000000000000000000000000000600052601160045260246000fd5b600062000bf6826200067d565b915062000c03836200067d565b925082820190508082111562000c1e5762000c1d62000bba565b5b92915050565b62000c2f816200067d565b82525050565b600060608201905062000c4c600083018662000ae3565b62000c5b602083018562000c24565b62000c6a604083018462000c24565b949350505050565b600060208201905062000c89600083018462000c24565b92915050565b6118e68062000c9f6000396000f3fe608060405234801561001057600080fd5b50600436106101165760003560e01c8063715018a6116100a2578063a9059cbb11610071578063a9059cbb146102bd578063dd62ed3e146102ed578063e735b48a1461031d578063f2fde38b14610339578063faff287c1461035557610116565b8063715018a61461025b57806379cc6790146102655780638da5cb5b1461028157806395d89b411461029f57610116565b8063313ce567116100e9578063313ce567146101b757806332cb6b0c146101d557806340c10f19146101f357806342966c681461020f57806370a082311461022b57610116565b806306fdde031461011b578063095ea7b31461013957806318160ddd1461016957806323b872dd14610187575b600080fd5b610123610373565b6040516101309190611096565b60405180910390f35b610153600480360381019061014e9190611160565b610405565b60405161016091906111bb565b60405180910390f35b610171610428565b60405161017e91906111e5565b60405180910390f35b6101a1600480360381019061019c9190611200565b610432565b6040516101ae91906111bb565b60405180910390f35b6101bf610461565b6040516101cc919061126f565b60405180910390f35b6101dd61046a565b6040516101ea91906111e5565b60405180910390f35b61020d60048036038101906102089190611160565b61047a565b005b6102296004803603810190610224919061128a565b6104f1565b005b610245600480360381019061024091906112b7565b610505565b60405161025291906111e5565b60405180910390f35b61026361054d565b005b61027f600480360381019061027a9190611160565b610561565b005b610289610581565b60405161029691906112f3565b60405180910390f35b6102a76105ab565b6040516102b49190611096565b60405180910390f35b6102d760048036038101906102d29190611160565b61063d565b6040516102e491906111bb565b60405180910390f35b6103076004803603810190610302919061130e565b610660565b60405161031491906111e5565b60405180910390f35b61033760048036038101906103329190611483565b6106e7565b005b610353600480360381019061034e91906112b7565b610702565b005b61035d610788565b60405161036a9190611096565b60405180910390f35b606060038054610382906114fb565b80601f01602080910402602001604051908101604052809291908181526020018280546103ae906114fb565b80156103fb5780601f106103d0576101008083540402835291602001916103fb565b820191906000526020600020905b8154815290600101906020018083116103de57829003601f168201915b5050505050905090565b600080610410610816565b905061041d81858561081e565b600191505092915050565b6000600254905090565b60008061043d610816565b905061044a858285610830565b6104558585856108c5565b60019150509392505050565b60006012905090565b6b033b2e3c9fd0803ce800000081565b6104826109b9565b6b033b2e3c9fd0803ce800000081610498610428565b6104a2919061155b565b11156104e3576040517f08c379a00000000000000000000000000000000000000000000000000000000081526004016104da906115db565b60405180910390fd5b6104ed8282610a40565b5050565b6105026104fc610816565b82610ac2565b50565b60008060008373ffffffffffffffffffffffffffffffffffffffff1673ffffffffffffffffffffffffffffffffffffffff168152602001908152602001600020549050919050565b6105556109b9565b61055f6000610b44565b565b6105738261056d610816565b83610830565b61057d8282610ac2565b5050565b6000600560009054906101000a900473ffffffffffffffffffffffffffffffffffffffff16905090565b6060600480546105ba906114fb565b80601f01602080910402602001604051908101604052809291908181526020018280546105e6906114fb565b80156106335780601f1061060857610100808354040283529160200191610633565b820191906000526020600020905b81548152906001019060200180831161061657829003601f168201915b5050505050905090565b600080610648610816565b90506106558185856108c5565b600191505092915050565b6000600160008473ffffffffffffffffffffffffffffffffffffffff1673ffffffffffffffffffffffffffffffffffffffff16815260200190815260200160002060008373ffffffffffffffffffffffffffffffffffffffff1673ffffffffffffffffffffffffffffffffffffffff16815260200190815260200160002054905092915050565b6106ef6109b9565b80600690816106fe91906117a7565b5050565b61070a6109b9565b600073ffffffffffffffffffffffffffffffffffffffff168173ffffffffffffffffffffffffffffffffffffffff160361077c5760006040517f1e4fbdf700000000000000000000000000000000000000000000000000000000815260040161077391906112f3565b60405180910390fd5b61078581610b44565b50565b60068054610795906114fb565b80601f01602080910402602001604051908101604052809291908181526020018280546107c1906114fb565b801561080e5780601f106107e35761010080835404028352916020019161080e565b820191906000526020600020905b8154815290600101906020018083116107f157829003601f168201915b505050505081565b600033905090565b61082b8383836001610c0a565b505050565b600061083c8484610660565b90507fffffffffffffffffffffffffffffffffffffffffffffffffffffffffffffffff8110156108bf57818110156108af578281836040517ffb8f41b20000000000000000000000000000000000000000000000000000000081526004016108a693929190611879565b60405180910390fd5b6108be84848484036000610c0a565b5b50505050565b600073ffffffffffffffffffffffffffffffffffffffff168373ffffffffffffffffffffffffffffffffffffffff16036109375760006040517f96c6fd1e00000000000000000000000000000000000000000000000000000000815260040161092e91906112f3565b60405180910390fd5b600073ffffffffffffffffffffffffffffffffffffffff168273ffffffffffffffffffffffffffffffffffffffff16036109a95760006040517fec442f050000000000000000000000000000000000000000000000000000000081526004016109a091906112f3565b60405180910390fd5b6109b4838383610de1565b505050565b6109c1610816565b73ffffffffffffffffffffffffffffffffffffffff166109df610581565b73ffffffffffffffffffffffffffffffffffffffff1614610a3e57610a02610816565b6040517f118cdaa7000000000000000000000000000000000000000000000000000000008152600401610a3591906112f3565b60405180910390fd5b565b600073ffffffffffffffffffffffffffffffffffffffff168273ffffffffffffffffffffffffffffffffffffffff1603610ab25760006040517fec442f05000000000000000000000000000000000000000000000000000000008152600401610aa991906112f3565b60405180910390fd5b610abe60008383610de1565b5050565b600073ffffffffffffffffffffffffffffffffffffffff168273ffffffffffffffffffffffffffffffffffffffff1603610b345760006040517f96c6fd1e000000000000000000000000000000000000000000000000000000008152600401610b2b91906112f3565b60405180910390fd5b610b4082600083610de1565b5050565b6000600560009054906101000a900473ffffffffffffffffffffffffffffffffffffffff16905081600560006101000a81548173ffffffffffffffffffffffffffffffffffffffff021916908373ffffffffffffffffffffffffffffffffffffffff1602179055508173ffffffffffffffffffffffffffffffffffffffff168173ffffffffffffffffffffffffffffffffffffffff167f8be0079c531659141344cd1fd0a4f28419497f9722a3daafe3b4186f6b6457e060405160405180910390a35050565b600073ffffffffffffffffffffffffffffffffffffffff168473ffffffffffffffffffffffffffffffffffffffff1603610c7c5760006040517fe602df05000000000000000000000000000000000000000000000000000000008152600401610c7391906112f3565b60405180910390fd5b600073ffffffffffffffffffffffffffffffffffffffff168373ffffffffffffffffffffffffffffffffffffffff1603610cee5760006040517f94280d62000000000000000000000000000000000000000000000000000000008152600401610ce591906112f3565b60405180910390fd5b81600160008673ffffffffffffffffffffffffffffffffffffffff1673ffffffffffffffffffffffffffffffffffffffff16815260200190815260200160002060008573ffffffffffffffffffffffffffffffffffffffff1673ffffffffffffffffffffffffffffffffffffffff168152602001908152602001600020819055508015610ddb578273ffffffffffffffffffffffffffffffffffffffff168473ffffffffffffffffffffffffffffffffffffffff167f8c5be1e5ebec7d5bd14f71427d1e84f3dd0314c0f7b2291e5b200ac8c7c3b92584604051610dd291906111e5565b60405180910390a35b50505050565b600073ffffffffffffffffffffffffffffffffffffffff168373ffffffffffffffffffffffffffffffffffffffff1603610e33578060026000828254610e27919061155b565b92505081905550610f06565b60008060008573ffffffffffffffffffffffffffffffffffffffff1673ffffffffffffffffffffffffffffffffffffffff16815260200190815260200160002054905081811015610ebf578381836040517fe450d38c000000000000000000000000000000000000000000000000000000008152600401610eb693929190611879565b60405180910390fd5b8181036000808673ffffffffffffffffffffffffffffffffffffffff1673ffffffffffffffffffffffffffffffffffffffff16815260200190815260200160002081905550505b600073ffffffffffffffffffffffffffffffffffffffff168273ffffffffffffffffffffffffffffffffffffffff1603610f4f5780600260008282540392505081905550610f9c565b806000808473ffffffffffffffffffffffffffffffffffffffff1673ffffffffffffffffffffffffffffffffffffffff168152602001908152602001600020600082825401925050819055505b8173ffffffffffffffffffffffffffffffffffffffff168373ffffffffffffffffffffffffffffffffffffffff167fddf252ad1be2c89b69c2b068fc378daa952ba7f163c4a11628f55a4df523b3ef83604051610ff991906111e5565b60405180910390a3505050565b600081519050919050565b600082825260208201905092915050565b60005b83811015611040578082015181840152602081019050611025565b60008484015250505050565b6000601f19601f8301169050919050565b600061106882611006565b6110728185611011565b9350611082818560208601611022565b61108b8161104c565b840191505092915050565b600060208201905081810360008301526110b0818461105d565b905092915050565b6000604051905090565b600080fd5b600080fd5b600073ffffffffffffffffffffffffffffffffffffffff82169050919050565b60006110f7826110cc565b9050919050565b611107816110ec565b811461111257600080fd5b50565b600081359050611124816110fe565b92915050565b6000819050919050565b61113d8161112a565b811461114857600080fd5b50565b60008135905061115a81611134565b92915050565b60008060408385031215611177576111766110c2565b5b600061118585828601611115565b92505060206111968582860161114b565b9150509250929050565b60008115159050919050565b6111b5816111a0565b82525050565b60006020820190506111d060008301846111ac565b92915050565b6111df8161112a565b82525050565b60006020820190506111fa60008301846111d6565b92915050565b600080600060608486031215611219576112186110c2565b5b600061122786828701611115565b935050602061123886828701611115565b92505060406112498682870161114b565b9150509250925092565b600060ff82169050919050565b61126981611253565b82525050565b60006020820190506112846000830184611260565b92915050565b6000602082840312156112a05761129f6110c2565b5b60006112ae8482850161114b565b91505092915050565b6000602082840312156112cd576112cc6110c2565b5b60006112db84828501611115565b91505092915050565b6112ed816110ec565b82525050565b600060208201905061130860008301846112e4565b92915050565b60008060408385031215611325576113246110c2565b5b600061133385828601611115565b925050602061134485828601611115565b9150509250929050565b600080fd5b600080fd5b7f4e487b7100000000000000000000000000000000000000000000000000000000600052604160045260246000fd5b6113908261104c565b810181811067ffffffffffffffff821117156113af576113ae611358565b5b80604052505050565b60006113c26110b8565b90506113ce8282611387565b919050565b600067ffffffffffffffff8211156113ee576113ed611358565b5b6113f78261104c565b9050602081019050919050565b82818337600083830152505050565b6000611426611421846113d3565b6113b8565b90508281526020810184848401111561144257611441611353565b5b61144d848285611404565b509392505050565b600082601f83011261146a5761146961134e565b5b813561147a848260208601611413565b91505092915050565b600060208284031215611499576114986110c2565b5b600082013567ffffffffffffffff8111156114b7576114b66110c7565b5b6114c384828501611455565b91505092915050565b7f4e487b7100000000000000000000000000000000000000000000000000000000600052602260045260246000fd5b6000600282049050600182168061151357607f821691505b602082108103611526576115256114cc565b5b50919050565b7f4e487b7100000000000000000000000000000000000000000000000000000000600052601160045260246000fd5b60006115668261112a565b91506115718361112a565b92508282019050808211156115895761158861152c565b5b92915050565b7f4d696e7420776f756c6420657863656564206d617820737570706c7900000000600082015250565b60006115c5601c83611011565b91506115d08261158f565b602082019050919050565b600060208201905081810360008301526115f4816115b8565b9050919050565b60008190508160005260206000209050919050565b60006020601f8301049050919050565b600082821b905092915050565b60006008830261165d7fffffffffffffffffffffffffffffffffffffffffffffffffffffffffffffffff82611620565b6116678683611620565b95508019841693508086168417925050509392505050565b6000819050919050565b60006116a461169f61169a8461112a565b61167f565b61112a565b9050919050565b6000819050919050565b6116be83611689565b6116d26116ca826116ab565b84845461162d565b825550505050565b600090565b6116e76116da565b6116f28184846116b5565b505050565b5b818110156117165761170b6000826116df565b6001810190506116f8565b5050565b601f82111561175b5761172c816115fb565b61173584611610565b81016020851015611744578190505b61175861175085611610565b8301826116f7565b50505b505050565b600082821c905092915050565b600061177e60001984600802611760565b1980831691505092915050565b6000611797838361176d565b9150826002028217905092915050565b6117b082611006565b67ffffffffffffffff8111156117c9576117c8611358565b5b6117d382546114fb565b6117de82828561171a565b600060209050601f83116001811461181157600084156117ff578287015190505b611809858261178b565b865550611871565b601f19841661181f866115fb565b60005b8281101561184757848901518255600182019150602085019450602081019050611822565b868310156118645784890151611860601f89168261176d565b8355505b6001600288020188555050505b505050505050565b600060608201905061188e60008301866112e4565b61189b60208301856111d6565b6118a860408301846111d6565b94935050505056fea2646970667358221220fb9174e5d123ea4895c11cc85e5ae37d45fd702600d1066b89cece794832002c64736f6c63430008140033",
  "linkReferences": {},
  "deployedLinkReferences": {}
}