{
  "_format": "hh-sol-artifact-1",
  "contractName": "ShibMemeToken",
  "sourceName": "contracts/ShibMemeToken.sol",
  "abi": [
    {
      "inputs": [
        {
          "internalType": "string",
          "name": "name",
          "type": "string"
        },
        {
          "internalType": "string",
          "name": "symbol",
          "type": "string"
        },
        {
          "internalType": "uint256",
          "name": "initialSupply",
          "type": "uint256"
        },
        {
          "internalType": "string",
          "name": "description",
          "type": "string"
        },
        {
          "internalType": "address",
          "name": "_marketingWallet",
          "type": "address"
        },
        {
          "internalType": "address",
          "name": "_charityWallet",
          "type": "address"
        },
        {
          "internalType": "address",
          "name": "_devWallet",
          "type": "address"
        }
      ],
      "stateMutability": "nonpayable",
      "type": "constructor"
    },
    {
      "inputs": [
        {
          "internalType": "address",
          "name": "spender",
          "type": "address"
        },
        {
          "internalType": "uint256",
          "name": "allowance",
          "type": "uint256"
        },
        {
          "internalType": "uint256",
          "name": "needed",
          "type": "uint256"
        }
      ],
      "name": "ERC20InsufficientAllowance",
      "type": "error"
    },
    {
      "inputs": [
        {
          "internalType": "address",
          "name": "sender",
          "type": "address"
        },
        {
          "internalType": "uint256",
          "name": "balance",
          "type": "uint256"
        },
        {
          "internalType": "uint256",
          "name": "needed",
          "type": "uint256"
        }
      ],
      "name": "ERC20InsufficientBalance",
      "type": "error"
    },
    {
      "inputs": [
        {
          "internalType": "address",
          "name": "approver",
          "type": "address"
        }
      ],
      "name": "ERC20InvalidApprover",
      "type": "error"
    },
    {
      "inputs": [
        {
          "internalType": "address",
          "name": "receiver",
          "type": "address"
        }
      ],
      "name": "ERC20InvalidReceiver",
      "type": "error"
    },
    {
      "inputs": [
        {
          "internalType": "address",
          "name": "sender",
          "type": "address"
        }
      ],
      "name": "ERC20InvalidSender",
      "type": "error"
    },
    {
      "inputs": [
        {
          "internalType": "address",
          "name": "spender",
          "type": "address"
        }
      ],
      "name": "ERC20InvalidSpender",
      "type": "error"
    },
    {
      "inputs": [
        {
          "internalType": "address",
          "name": "owner",
          "type": "address"
        }
      ],
      "name": "OwnableInvalidOwner",
      "type": "error"
    },
    {
      "inputs": [
        {
          "internalType": "address",
          "name": "account",
          "type": "address"
        }
      ],
      "name": "OwnableUnauthorizedAccount",
      "type": "error"
    },
    {
      "anonymous": false,
      "inputs": [
        {
          "indexed": true,
          "internalType": "address",
          "name": "owner",
          "type": "address"
        },
        {
          "indexed": true,
          "internalType": "address",
          "name": "spender",
          "type": "address"
        },
        {
          "indexed": false,
          "internalType": "uint256",
          "name": "value",
          "type": "uint256"
        }
      ],
      "name": "Approval",
      "type": "event"
    },
    {
      "anonymous": false,
      "inputs": [
        {
          "indexed": false,
          "internalType": "address",
          "name": "marketing",
          "type": "address"
        },
        {
          "indexed": false,
          "internalType": "address",
          "name": "charity",
          "type": "address"
        },
        {
          "indexed": false,
          "internalType": "address",
          "name": "dev",
          "type": "address"
        },
        {
          "indexed": false,
          "internalType": "uint256",
          "name": "amount",
          "type": "uint256"
        }
      ],
      "name": "FeeDistributed",
      "type": "event"
    },
    {
      "anonymous": false,
      "inputs": [
        {
          "indexed": false,
          "internalType": "address",
          "name": "lpPair",
          "type": "address"
        }
      ],
      "name": "LiquidityPoolSet",
      "type": "event"
    },
    {
      "anonymous": false,
      "inputs": [
        {
          "indexed": true,
          "internalType": "address",
          "name": "previousOwner",
          "type": "address"
        },
        {
          "indexed": true,
          "internalType": "address",
          "name": "newOwner",
          "type": "address"
        }
      ],
      "name": "OwnershipTransferred",
      "type": "event"
    },
    {
      "anonymous": false,
      "inputs": [
        {
          "indexed": false,
          "internalType": "uint256",
          "name": "marketing",
          "type": "uint256"
        },
        {
          "indexed": false,
          "internalType": "uint256",
          "name": "charity",
          "type": "uint256"
        },
        {
          "indexed": false,
          "internalType": "uint256",
          "name": "dev",
          "type": "uint256"
        }
      ],
      "name": "TaxDistributionChanged",
      "type": "event"
    },
    {
      "anonymous": false,
      "inputs": [
        {
          "indexed": false,
          "internalType": "uint256",
          "name": "newBuyTaxRate",
          "type": "uint256"
        },
        {
          "indexed": false,
          "internalType": "uint256",
          "name": "newSellTaxRate",
          "type": "uint256"
        }
      ],
      "name": "TaxRateChanged",
      "type": "event"
    },
    {
      "anonymous": false,
      "inputs": [
        {
          "indexed": false,
          "internalType": "bool",
          "name": "enabled",
          "type": "bool"
        }
      ],
      "name": "TaxStatusChanged",
      "type": "event"
    },
    {
      "anonymous": false,
      "inputs": [
        {
          "indexed": false,
          "internalType": "string",
          "name": "walletType",
          "type": "string"
        },
        {
          "indexed": false,
          "internalType": "address",
          "name": "newAddress",
          "type": "address"
        }
      ],
      "name": "TaxWalletChanged",
      "type": "event"
    },
    {
      "anonymous": false,
      "inputs": [
        {
          "indexed": false,
          "internalType": "bool",
          "name": "enabled",
          "type": "bool"
        }
      ],
      "name": "TradingStatusChanged",
      "type": "event"
    },
    {
      "anonymous": false,
      "inputs": [
        {
          "indexed": false,
          "internalType": "uint256",
          "name": "maxTxAmount",
          "type": "uint256"
        },
        {
          "indexed": false,
          "internalType": "uint256",
          "name": "maxWallet",
          "type": "uint256"
        },
        {
          "indexed": false,
          "internalType": "uint256",
          "name": "dailyLimit",
          "type": "uint256"
        }
      ],
      "name": "TransactionLimitChanged",
      "type": "event"
    },
    {
      "anonymous": false,
      "inputs": [
        {
          "indexed": true,
          "internalType": "address",
          "name": "from",
          "type": "address"
        },
        {
          "indexed": true,
          "internalType": "address",
          "name": "to",
          "type": "address"
        },
        {
          "indexed": false,
          "internalType": "uint256",
          "name": "value",
          "type": "uint256"
        }
      ],
      "name": "Transfer",
      "type": "event"
    },
    {
      "anonymous": false,
      "inputs": [
        {
          "indexed": false,
          "internalType": "address",
          "name": "account",
          "type": "address"
        },
        {
          "indexed": false,
          "internalType": "bool",
          "name": "status",
          "type": "bool"
        }
      ],
      "name": "WhitelistUpdated",
      "type": "event"
    },
    {
      "inputs": [],
      "name": "MAX_SUPPLY",
      "outputs": [
        {
          "internalType": "uint256",
          "name": "",
          "type": "uint256"
        }
      ],
      "stateMutability": "view",
      "type": "function"
    },
    {
      "inputs": [],
      "name": "MAX_TAX_RATE",
      "outputs": [
        {
          "internalType": "uint256",
          "name": "",
          "type": "uint256"
        }
      ],
      "stateMutability": "view",
      "type": "function"
    },
    {
      "inputs": [
        {
          "internalType": "address",
          "name": "owner",
          "type": "address"
        },
        {
          "internalType": "address",
          "name": "spender",
          "type": "address"
        }
      ],
      "name": "allowance",
      "outputs": [
        {
          "internalType": "uint256",
          "name": "",
          "type": "uint256"
        }
      ],
      "stateMutability": "view",
      "type": "function"
    },
    {
      "inputs": [
        {
          "internalType": "address",
          "name": "spender",
          "type": "address"
        },
        {
          "internalType": "uint256",
          "name": "value",
          "type": "uint256"
        }
      ],
      "name": "approve",
      "outputs": [
        {
          "internalType": "bool",
          "name": "",
          "type": "bool"
        }
      ],
      "stateMutability": "nonpayable",
      "type": "function"
    },
    {
      "inputs": [
        {
          "internalType": "address",
          "name": "account",
          "type": "address"
        }
      ],
      "name": "balanceOf",
      "outputs": [
        {
          "internalType": "uint256",
          "name": "",
          "type": "uint256"
        }
      ],
      "stateMutability": "view",
      "type": "function"
    },
    {
      "inputs": [
        {
          "internalType": "uint256",
          "name": "value",
          "type": "uint256"
        }
      ],
      "name": "burn",
      "outputs": [],
      "stateMutability": "nonpayable",
      "type": "function"
    },
    {
      "inputs": [
        {
          "internalType": "address",
          "name": "account",
          "type": "address"
        },
        {
          "internalType": "uint256",
          "name": "value",
          "type": "uint256"
        }
      ],
      "name": "burnFrom",
      "outputs": [],
      "stateMutability": "nonpayable",
      "type": "function"
    },
    {
      "inputs": [],
      "name": "buyTaxRate",
      "outputs": [
        {
          "internalType": "uint256",
          "name": "",
          "type": "uint256"
        }
      ],
      "stateMutability": "view",
      "type": "function"
    },
    {
      "inputs": [],
      "name": "charityShare",
      "outputs": [
        {
          "internalType": "uint256",
          "name": "",
          "type": "uint256"
        }
      ],
      "stateMutability": "view",
      "type": "function"
    },
    {
      "inputs": [],
      "name": "charityWallet",
      "outputs": [
        {
          "internalType": "address",
          "name": "",
          "type": "address"
        }
      ],
      "stateMutability": "view",
      "type": "function"
    },
    {
      "inputs": [
        {
          "internalType": "address",
          "name": "",
          "type": "address"
        }
      ],
      "name": "dailyTransactionCount",
      "outputs": [
        {
          "internalType": "uint256",
          "name": "",
          "type": "uint256"
        }
      ],
      "stateMutability": "view",
      "type": "function"
    },
    {
      "inputs": [],
      "name": "dailyTransactionLimit",
      "outputs": [
        {
          "internalType": "uint256",
          "name": "",
          "type": "uint256"
        }
      ],
      "stateMutability": "view",
      "type": "function"
    },
    {
      "inputs": [
        {
          "internalType": "address",
          "name": "",
          "type": "address"
        }
      ],
      "name": "dailyTransactionVolume",
      "outputs": [
        {
          "internalType": "uint256",
          "name": "",
          "type": "uint256"
        }
      ],
      "stateMutability": "view",
      "type": "function"
    },
    {
      "inputs": [],
      "name": "decimals",
      "outputs": [
        {
          "internalType": "uint8",
          "name": "",
          "type": "uint8"
        }
      ],
      "stateMutability": "view",
      "type": "function"
    },
    {
      "inputs": [],
      "name": "devShare",
      "outputs": [
        {
          "internalType": "uint256",
          "name": "",
          "type": "uint256"
        }
      ],
      "stateMutability": "view",
      "type": "function"
    },
    {
      "inputs": [],
      "name": "devWallet",
      "outputs": [
        {
          "internalType": "address",
          "name": "",
          "type": "address"
        }
      ],
      "stateMutability": "view",
      "type": "function"
    },
    {
      "inputs": [],
      "name": "emergencyWithdraw",
      "outputs": [],
      "stateMutability": "nonpayable",
      "type": "function"
    },
    {
      "inputs": [],
      "name": "isTaxEnabled",
      "outputs": [
        {
          "internalType": "bool",
          "name": "",
          "type": "bool"
        }
      ],
      "stateMutability": "view",
      "type": "function"
    },
    {
      "inputs": [
        {
          "internalType": "address",
          "name": "",
          "type": "address"
        }
      ],
      "name": "isWhitelisted",
      "outputs": [
        {
          "internalType": "bool",
          "name": "",
          "type": "bool"
        }
      ],
      "stateMutability": "view",
      "type": "function"
    },
    {
      "inputs": [
        {
          "internalType": "address",
          "name": "",
          "type": "address"
        }
      ],
      "name": "lastTransactionTimestamp",
      "outputs": [
        {
          "internalType": "uint256",
          "name": "",
          "type": "uint256"
        }
      ],
      "stateMutability": "view",
      "type": "function"
    },
    {
      "inputs": [],
      "name": "liquidityFeeRate",
      "outputs": [
        {
          "internalType": "uint256",
          "name": "",
          "type": "uint256"
        }
      ],
      "stateMutability": "view",
      "type": "function"
    },
    {
      "inputs": [],
      "name": "liquidityPair",
      "outputs": [
        {
          "internalType": "address",
          "name": "",
          "type": "address"
        }
      ],
      "stateMutability": "view",
      "type": "function"
    },
    {
      "inputs": [],
      "name": "marketingShare",
      "outputs": [
        {
          "internalType": "uint256",
          "name": "",
          "type": "uint256"
        }
      ],
      "stateMutability": "view",
      "type": "function"
    },
    {
      "inputs": [],
      "name": "marketingWallet",
      "outputs": [
        {
          "internalType": "address",
          "name": "",
          "type": "address"
        }
      ],
      "stateMutability": "view",
      "type": "function"
    },
    {
      "inputs": [],
      "name": "maxTransactionAmount",
      "outputs": [
        {
          "internalType": "uint256",
          "name": "",
          "type": "uint256"
        }
      ],
      "stateMutability": "view",
      "type": "function"
    },
    {
      "inputs": [],
      "name": "maxWalletSize",
      "outputs": [
        {
          "internalType": "uint256",
          "name": "",
          "type": "uint256"
        }
      ],
      "stateMutability": "view",
      "type": "function"
    },
    {
      "inputs": [],
      "name": "memeDescription",
      "outputs": [
        {
          "internalType": "string",
          "name": "",
          "type": "string"
        }
      ],
      "stateMutability": "view",
      "type": "function"
    },
    {
      "inputs": [],
      "name": "minLiquidityTime",
      "outputs": [
        {
          "internalType": "uint256",
          "name": "",
          "type": "uint256"
        }
      ],
      "stateMutability": "view",
      "type": "function"
    },
    {
      "inputs": [
        {
          "internalType": "address",
          "name": "to",
          "type": "address"
        },
        {
          "internalType": "uint256",
          "name": "amount",
          "type": "uint256"
        }
      ],
      "name": "mint",
      "outputs": [],
      "stateMutability": "nonpayable",
      "type": "function"
    },
    {
      "inputs": [],
      "name": "name",
      "outputs": [
        {
          "internalType": "string",
          "name": "",
          "type": "string"
        }
      ],
      "stateMutability": "view",
      "type": "function"
    },
    {
      "inputs": [],
      "name": "owner",
      "outputs": [
        {
          "internalType": "address",
          "name": "",
          "type": "address"
        }
      ],
      "stateMutability": "view",
      "type": "function"
    },
    {
      "inputs": [],
      "name": "renounceOwnership",
      "outputs": [],
      "stateMutability": "nonpayable",
      "type": "function"
    },
    {
      "inputs": [],
      "name": "sellTaxRate",
      "outputs": [
        {
          "internalType": "uint256",
          "name": "",
          "type": "uint256"
        }
      ],
      "stateMutability": "view",
      "type": "function"
    },
    {
      "inputs": [
        {
          "internalType": "address",
          "name": "_liquidityPair",
          "type": "address"
        }
      ],
      "name": "setLiquidityPair",
      "outputs": [],
      "stateMutability": "nonpayable",
      "type": "function"
    },
    {
      "inputs": [
        {
          "internalType": "bool",
          "name": "enabled",
          "type": "bool"
        }
      ],
      "name": "setTaxEnabled",
      "outputs": [],
      "stateMutability": "nonpayable",
      "type": "function"
    },
    {
      "inputs": [
        {
          "internalType": "bool",
          "name": "enabled",
          "type": "bool"
        }
      ],
      "name": "setTradingEnabled",
      "outputs": [],
      "stateMutability": "nonpayable",
      "type": "function"
    },
    {
      "inputs": [],
      "name": "symbol",
      "outputs": [
        {
          "internalType": "string",
          "name": "",
          "type": "string"
        }
      ],
      "stateMutability": "view",
      "type": "function"
    },
    {
      "inputs": [],
      "name": "totalSupply",
      "outputs": [
        {
          "internalType": "uint256",
          "name": "",
          "type": "uint256"
        }
      ],
      "stateMutability": "view",
      "type": "function"
    },
    {
      "inputs": [],
      "name": "tradingEnabled",
      "outputs": [
        {
          "internalType": "bool",
          "name": "",
          "type": "bool"
        }
      ],
      "stateMutability": "view",
      "type": "function"
    },
    {
      "inputs": [
        {
          "internalType": "address",
          "name": "to",
          "type": "address"
        },
        {
          "internalType": "uint256",
          "name": "value",
          "type": "uint256"
        }
      ],
      "name": "transfer",
      "outputs": [
        {
          "internalType": "bool",
          "name": "",
          "type": "bool"
        }
      ],
      "stateMutability": "nonpayable",
      "type": "function"
    },
    {
      "inputs": [
        {
          "internalType": "address",
          "name": "from",
          "type": "address"
        },
        {
          "internalType": "address",
          "name": "to",
          "type": "address"
        },
        {
          "internalType": "uint256",
          "name": "value",
          "type": "uint256"
        }
      ],
      "name": "transferFrom",
      "outputs": [
        {
          "internalType": "bool",
          "name": "",
          "type": "bool"
        }
      ],
      "stateMutability": "nonpayable",
      "type": "function"
    },
    {
      "inputs": [
        {
          "internalType": "address",
          "name": "newOwner",
          "type": "address"
        }
      ],
      "name": "transferOwnership",
      "outputs": [],
      "stateMutability": "nonpayable",
      "type": "function"
    },
    {
      "inputs": [
        {
          "internalType": "address",
          "name": "to",
          "type": "address"
        },
        {
          "internalType": "uint256",
          "name": "amount",
          "type": "uint256"
        }
      ],
      "name": "transferWithTax",
      "outputs": [
        {
          "internalType": "bool",
          "name": "",
          "type": "bool"
        }
      ],
      "stateMutability": "nonpayable",
      "type": "function"
    },
    {
      "inputs": [
        {
          "internalType": "string",
          "name": "newDescription",
          "type": "string"
        }
      ],
      "name": "updateDescription",
      "outputs": [],
      "stateMutability": "nonpayable",
      "type": "function"
    },
    {
      "inputs": [
        {
          "internalType": "uint256",
          "name": "_marketingShare",
          "type": "uint256"
        },
        {
          "internalType": "uint256",
          "name": "_charityShare",
          "type": "uint256"
        },
        {
          "internalType": "uint256",
          "name": "_devShare",
          "type": "uint256"
        }
      ],
      "name": "updateTaxDistribution",
      "outputs": [],
      "stateMutability": "nonpayable",
      "type": "function"
    },
    {
      "inputs": [
        {
          "internalType": "uint256",
          "name": "_buyTaxRate",
          "type": "uint256"
        },
        {
          "internalType": "uint256",
          "name": "_sellTaxRate",
          "type": "uint256"
        }
      ],
      "name": "updateTaxRates",
      "outputs": [],
      "stateMutability": "nonpayable",
      "type": "function"
    },
    {
      "inputs": [
        {
          "internalType": "address",
          "name": "_marketingWallet",
          "type": "address"
        },
        {
          "internalType": "address",
          "name": "_charityWallet",
          "type": "address"
        },
        {
          "internalType": "address",
          "name": "_devWallet",
          "type": "address"
        }
      ],
      "name": "updateTaxWallets",
      "outputs": [],
      "stateMutability": "nonpayable",
      "type": "function"
    },
    {
      "inputs": [
        {
          "internalType": "uint256",
          "name": "_maxTransactionAmount",
          "type": "uint256"
        },
        {
          "internalType": "uint256",
          "name": "_maxWalletSize",
          "type": "uint256"
        },
        {
          "internalType": "uint256",
          "name": "_dailyTransactionLimit",
          "type": "uint256"
        }
      ],
      "name": "updateTransactionLimits",
      "outputs": [],
      "stateMutability": "nonpayable",
      "type": "function"
    },
    {
      "inputs": [
        {
          "internalType": "address",
          "name": "account",
          "type": "address"
        },
        {
          "internalType": "bool",
          "name": "status",
          "type": "bool"
        }
      ],
      "name": "updateWhitelist",
      "outputs": [],
      "stateMutability": "nonpayable",
      "type": "function"
    }
  ],
  "bytecode": "0x60806040526005600755600a6008556028600c55601e600d55601e600e55600560105560006011556000601960006101000a81548160ff0219169083151502179055506001601960016101000a81548160ff0219169083151502179055503480156200006a57600080fd5b5060405162004c0638038062004c06833981810160405281019062000090919062000b07565b3387878160039081620000a4919062000e58565b508060049081620000b6919062000e58565b505050600073ffffffffffffffffffffffffffffffffffffffff168173ffffffffffffffffffffffffffffffffffffffff16036200012e5760006040517f1e4fbdf700000000000000000000000000000000000000000000000000000000815260040162000125919062000f50565b60405180910390fd5b6200013f816200055160201b60201c565b50836006908162000151919062000e58565b50600073ffffffffffffffffffffffffffffffffffffffff168373ffffffffffffffffffffffffffffffffffffffff1614158015620001bd5750600073ffffffffffffffffffffffffffffffffffffffff168273ffffffffffffffffffffffffffffffffffffffff1614155b8015620001f75750600073ffffffffffffffffffffffffffffffffffffffff168173ffffffffffffffffffffffffffffffffffffffff1614155b62000239576040517f08c379a0000000000000000000000000000000000000000000000000000000008152600401620002309062000fce565b60405180910390fd5b82600960006101000a81548173ffffffffffffffffffffffffffffffffffffffff021916908373ffffffffffffffffffffffffffffffffffffffff16021790555081600a60006101000a81548173ffffffffffffffffffffffffffffffffffffffff021916908373ffffffffffffffffffffffffffffffffffffffff16021790555080600b60006101000a81548173ffffffffffffffffffffffffffffffffffffffff021916908373ffffffffffffffffffffffffffffffffffffffff1602179055506c0c9f2c9cd04674edea400000008511156200034f576040517f08c379a0000000000000000000000000000000000000000000000000000000008152600401620003469062001066565b60405180910390fd5b6200036133866200061760201b60201c565b6000600f60006101000a81548173ffffffffffffffffffffffffffffffffffffffff021916908373ffffffffffffffffffffffffffffffffffffffff1602179055506103e885620003b39190620010e6565b601281905550606485620003c89190620010e6565b6013819055506103e885620003de9190620010e6565b6014819055506001601860003373ffffffffffffffffffffffffffffffffffffffff1673ffffffffffffffffffffffffffffffffffffffff16815260200190815260200160002060006101000a81548160ff0219169083151502179055506001601860008573ffffffffffffffffffffffffffffffffffffffff1673ffffffffffffffffffffffffffffffffffffffff16815260200190815260200160002060006101000a81548160ff0219169083151502179055506001601860008473ffffffffffffffffffffffffffffffffffffffff1673ffffffffffffffffffffffffffffffffffffffff16815260200190815260200160002060006101000a81548160ff0219169083151502179055506001601860008373ffffffffffffffffffffffffffffffffffffffff1673ffffffffffffffffffffffffffffffffffffffff16815260200190815260200160002060006101000a81548160ff02191690831515021790555050505050505050620011c4565b6000600560009054906101000a900473ffffffffffffffffffffffffffffffffffffffff16905081600560006101000a81548173ffffffffffffffffffffffffffffffffffffffff021916908373ffffffffffffffffffffffffffffffffffffffff1602179055508173ffffffffffffffffffffffffffffffffffffffff168173ffffffffffffffffffffffffffffffffffffffff167f8be0079c531659141344cd1fd0a4f28419497f9722a3daafe3b4186f6b6457e060405160405180910390a35050565b600073ffffffffffffffffffffffffffffffffffffffff168273ffffffffffffffffffffffffffffffffffffffff16036200068c5760006040517fec442f0500000000000000000000000000000000000000000000000000000000815260040162000683919062000f50565b60405180910390fd5b620006a060008383620006a460201b60201c565b5050565b600073ffffffffffffffffffffffffffffffffffffffff168373ffffffffffffffffffffffffffffffffffffffff1603620006fa578060026000828254620006ed91906200111e565b92505081905550620007d0565b60008060008573ffffffffffffffffffffffffffffffffffffffff1673ffffffffffffffffffffffffffffffffffffffff1681526020019081526020016000205490508181101562000789578381836040517fe450d38c00000000000000000000000000000000000000000000000000000000815260040162000780939291906200116a565b60405180910390fd5b8181036000808673ffffffffffffffffffffffffffffffffffffffff1673ffffffffffffffffffffffffffffffffffffffff16815260200190815260200160002081905550505b600073ffffffffffffffffffffffffffffffffffffffff168273ffffffffffffffffffffffffffffffffffffffff16036200081b578060026000828254039250508190555062000868565b806000808473ffffffffffffffffffffffffffffffffffffffff1673ffffffffffffffffffffffffffffffffffffffff168152602001908152602001600020600082825401925050819055505b8173ffffffffffffffffffffffffffffffffffffffff168373ffffffffffffffffffffffffffffffffffffffff167fddf252ad1be2c89b69c2b068fc378daa952ba7f163c4a11628f55a4df523b3ef83604051620008c79190620011a7565b60405180910390a3505050565b6000604051905090565b600080fd5b600080fd5b600080fd5b600080fd5b6000601f19601f8301169050919050565b7f4e487b7100000000000000000000000000000000000000000000000000000000600052604160045260246000fd5b6200093d82620008f2565b810181811067ffffffffffffffff821117156200095f576200095e62000903565b5b80604052505050565b600062000974620008d4565b905062000982828262000932565b919050565b600067ffffffffffffffff821115620009a557620009a462000903565b5b620009b082620008f2565b9050602081019050919050565b60005b83811015620009dd578082015181840152602081019050620009c0565b60008484015250505050565b600062000a00620009fa8462000987565b62000968565b90508281526020810184848401111562000a1f5762000a1e620008ed565b5b62000a2c848285620009bd565b509392505050565b600082601f83011262000a4c5762000a4b620008e8565b5b815162000a5e848260208601620009e9565b91505092915050565b6000819050919050565b62000a7c8162000a67565b811462000a8857600080fd5b50565b60008151905062000a9c8162000a71565b92915050565b600073ffffffffffffffffffffffffffffffffffffffff82169050919050565b600062000acf8262000aa2565b9050919050565b62000ae18162000ac2565b811462000aed57600080fd5b50565b60008151905062000b018162000ad6565b92915050565b600080600080600080600060e0888a03121562000b295762000b28620008de565b5b600088015167ffffffffffffffff81111562000b4a5762000b49620008e3565b5b62000b588a828b0162000a34565b975050602088015167ffffffffffffffff81111562000b7c5762000b7b620008e3565b5b62000b8a8a828b0162000a34565b965050604062000b9d8a828b0162000a8b565b955050606088015167ffffffffffffffff81111562000bc15762000bc0620008e3565b5b62000bcf8a828b0162000a34565b945050608062000be28a828b0162000af0565b93505060a062000bf58a828b0162000af0565b92505060c062000c088a828b0162000af0565b91505092959891949750929550565b600081519050919050565b7f4e487b7100000000000000000000000000000000000000000000000000000000600052602260045260246000fd5b6000600282049050600182168062000c6a57607f821691505b60208210810362000c805762000c7f62000c22565b5b50919050565b60008190508160005260206000209050919050565b60006020601f8301049050919050565b600082821b905092915050565b60006008830262000cea7fffffffffffffffffffffffffffffffffffffffffffffffffffffffffffffffff8262000cab565b62000cf6868362000cab565b95508019841693508086168417925050509392505050565b6000819050919050565b600062000d3962000d3362000d2d8462000a67565b62000d0e565b62000a67565b9050919050565b6000819050919050565b62000d558362000d18565b62000d6d62000d648262000d40565b84845462000cb8565b825550505050565b600090565b62000d8462000d75565b62000d9181848462000d4a565b505050565b5b8181101562000db95762000dad60008262000d7a565b60018101905062000d97565b5050565b601f82111562000e085762000dd28162000c86565b62000ddd8462000c9b565b8101602085101562000ded578190505b62000e0562000dfc8562000c9b565b83018262000d96565b50505b505050565b600082821c905092915050565b600062000e2d6000198460080262000e0d565b1980831691505092915050565b600062000e48838362000e1a565b9150826002028217905092915050565b62000e638262000c17565b67ffffffffffffffff81111562000e7f5762000e7e62000903565b5b62000e8b825462000c51565b62000e9882828562000dbd565b600060209050601f83116001811462000ed0576000841562000ebb578287015190505b62000ec7858262000e3a565b86555062000f37565b601f19841662000ee08662000c86565b60005b8281101562000f0a5784890151825560018201915060208501945060208101905062000ee3565b8683101562000f2a578489015162000f26601f89168262000e1a565b8355505b6001600288020188555050505b505050505050565b62000f4a8162000ac2565b82525050565b600060208201905062000f67600083018462000f3f565b92915050565b600082825260208201905092915050565b7f496e76616c69642077616c6c6574206164647265737300000000000000000000600082015250565b600062000fb660168362000f6d565b915062000fc38262000f7e565b602082019050919050565b6000602082019050818103600083015262000fe98162000fa7565b9050919050565b7f496e697469616c20737570706c792065786365656473206d617820737570706c60008201527f7900000000000000000000000000000000000000000000000000000000000000602082015250565b60006200104e60218362000f6d565b91506200105b8262000ff0565b604082019050919050565b6000602082019050818103600083015262001081816200103f565b9050919050565b7f4e487b7100000000000000000000000000000000000000000000000000000000600052601260045260246000fd5b7f4e487b7100000000000000000000000000000000000000000000000000000000600052601160045260246000fd5b6000620010f38262000a67565b9150620011008362000a67565b92508262001113576200111262001088565b5b828204905092915050565b60006200112b8262000a67565b9150620011388362000a67565b9250828201905080821115620011535762001152620010b7565b5b92915050565b620011648162000a67565b82525050565b600060608201905062001181600083018662000f3f565b62001190602083018562001159565b6200119f604083018462001159565b949350505050565b6000602082019050620011be600083018462001159565b92915050565b613a3280620011d46000396000f3fe608060405234801561001057600080fd5b50600436106102bb5760003560e01c8063808a545711610182578063bfc330fc116100e9578063dd62ed3e116100a2578063e735b48a1161007c578063e735b48a1461087c578063f2fde38b14610898578063f9cc6901146108b4578063faff287c146108d2576102bb565b8063dd62ed3e146107fe578063dda5f1ed1461082e578063e6c1909b1461085e576102bb565b8063bfc330fc14610764578063c2e5ec0414610780578063c6af580b1461079c578063c8c8ebe4146107b8578063d8c19d55146107d6578063db2e21bc146107f4576102bb565b806395d89b411161013b57806395d89b41146106a45780639d93598e146106c2578063a6399083146106de578063a9059cbb146106fa578063ab6a8b1c1461072a578063aed04fae14610746576102bb565b8063808a5457146105de5780638da5cb5b146105fc5780638ea5220f1461061a5780638f3fa860146106385780638fa81732146106565780639138117814610674576102bb565b806340c10f1911610226578063691f224f116101df578063691f224f1461052e57806370a082311461054c578063715018a61461057c57806375f0a8741461058657806379cc6790146105a45780637b208769146105c0576102bb565b806340c10f191461046e57806342966c681461048a5780634ada218b146104a65780634e81ad29146104c457806356cf37b7146104e057806367ac349614610510576102bb565b806323b872dd1161027857806323b872dd1461038457806324024efd146103b4578063291da3da146103d2578063313ce5671461040257806332cb6b0c146104205780633af32abf1461043e576102bb565b806306fdde03146102c057806309218ee7146102de578063095ea7b3146102fc5780630d392cd91461032c57806318160ddd146103485780631c9f26ad14610366575b600080fd5b6102c86108f0565b6040516102d5919061285f565b60405180910390f35b6102e6610982565b6040516102f3919061289a565b60405180910390f35b61031660048036038101906103119190612953565b610988565b60405161032391906129ae565b60405180910390f35b610346600480360381019061034191906129f5565b6109ab565b005b610350610a47565b60405161035d919061289a565b60405180910390f35b61036e610a51565b60405161037b919061289a565b60405180910390f35b61039e60048036038101906103999190612a35565b610a57565b6040516103ab91906129ae565b60405180910390f35b6103bc610a86565b6040516103c9919061289a565b60405180910390f35b6103ec60048036038101906103e79190612a88565b610a8c565b6040516103f9919061289a565b60405180910390f35b61040a610aa4565b6040516104179190612ad1565b60405180910390f35b610428610aad565b604051610435919061289a565b60405180910390f35b61045860048036038101906104539190612a88565b610abe565b60405161046591906129ae565b60405180910390f35b61048860048036038101906104839190612953565b610ade565b005b6104a4600480360381019061049f9190612aec565b610b56565b005b6104ae610b6a565b6040516104bb91906129ae565b60405180910390f35b6104de60048036038101906104d99190612b19565b610b7d565b005b6104fa60048036038101906104f59190612a88565b610bda565b604051610507919061289a565b60405180910390f35b610518610bf2565b604051610525919061289a565b60405180910390f35b610536610bf8565b604051610543919061289a565b60405180910390f35b61056660048036038101906105619190612a88565b610bfe565b604051610573919061289a565b60405180910390f35b610584610c46565b005b61058e610c5a565b60405161059b9190612b7b565b60405180910390f35b6105be60048036038101906105b99190612953565b610c80565b005b6105c8610ca0565b6040516105d59190612b7b565b60405180910390f35b6105e6610cc6565b6040516105f39190612b7b565b60405180910390f35b610604610cec565b6040516106119190612b7b565b60405180910390f35b610622610d16565b60405161062f9190612b7b565b60405180910390f35b610640610d3c565b60405161064d919061289a565b60405180910390f35b61065e610d42565b60405161066b919061289a565b60405180910390f35b61068e60048036038101906106899190612953565b610d47565b60405161069b91906129ae565b60405180910390f35b6106ac61144f565b6040516106b9919061285f565b60405180910390f35b6106dc60048036038101906106d79190612a88565b6114e1565b005b6106f860048036038101906106f39190612b96565b611679565b005b610714600480360381019061070f9190612953565b6119d2565b60405161072191906129ae565b60405180910390f35b610744600480360381019061073f9190612be9565b6119f5565b005b61074e611a99565b60405161075b919061289a565b60405180910390f35b61077e60048036038101906107799190612b19565b611a9f565b005b61079a60048036038101906107959190612c29565b611b55565b005b6107b660048036038101906107b19190612c29565b611bb1565b005b6107c0611c0d565b6040516107cd919061289a565b60405180910390f35b6107de611c13565b6040516107eb919061289a565b60405180910390f35b6107fc611c19565b005b61081860048036038101906108139190612c56565b611c71565b604051610825919061289a565b60405180910390f35b61084860048036038101906108439190612a88565b611cf8565b604051610855919061289a565b60405180910390f35b610866611d10565b60405161087391906129ae565b60405180910390f35b61089660048036038101906108919190612dcb565b611d23565b005b6108b260048036038101906108ad9190612a88565b611d3e565b005b6108bc611dc4565b6040516108c9919061289a565b60405180910390f35b6108da611dca565b6040516108e7919061285f565b60405180910390f35b6060600380546108ff90612e43565b80601f016020809104026020016040519081016040528092919081815260200182805461092b90612e43565b80156109785780601f1061094d57610100808354040283529160200191610978565b820191906000526020600020905b81548152906001019060200180831161095b57829003601f168201915b5050505050905090565b600c5481565b600080610993611e58565b90506109a0818585611e60565b600191505092915050565b6109b3611e72565b80601860008473ffffffffffffffffffffffffffffffffffffffff1673ffffffffffffffffffffffffffffffffffffffff16815260200190815260200160002060006101000a81548160ff0219169083151502179055507ff93f9a76c1bf3444d22400a00cb9fe990e6abe9dbb333fda48859cfee864543d8282604051610a3b929190612e74565b60405180910390a15050565b6000600254905090565b60115481565b600080610a62611e58565b9050610a6f858285611ef9565b610a7a858585611f8e565b60019150509392505050565b60085481565b60166020528060005260406000206000915090505481565b60006012905090565b6c0c9f2c9cd04674edea4000000081565b60186020528060005260406000206000915054906101000a900460ff1681565b610ae6611e72565b6c0c9f2c9cd04674edea4000000081610afd610a47565b610b079190612ecc565b1115610b48576040517f08c379a0000000000000000000000000000000000000000000000000000000008152600401610b3f90612f4c565b60405180910390fd5b610b528282612082565b5050565b610b67610b61611e58565b82612104565b50565b601960009054906101000a900460ff1681565b610b85611e72565b8260128190555081601381905550806014819055507ff932f831f635f4794e3f31a3575c37182352a77df678bc37720f41733d07f45a838383604051610bcd93929190612f6c565b60405180910390a1505050565b60156020528060005260406000206000915090505481565b60105481565b60075481565b60008060008373ffffffffffffffffffffffffffffffffffffffff1673ffffffffffffffffffffffffffffffffffffffff168152602001908152602001600020549050919050565b610c4e611e72565b610c586000612186565b565b600960009054906101000a900473ffffffffffffffffffffffffffffffffffffffff1681565b610c9282610c8c611e58565b83611ef9565b610c9c8282612104565b5050565b600a60009054906101000a900473ffffffffffffffffffffffffffffffffffffffff1681565b600f60009054906101000a900473ffffffffffffffffffffffffffffffffffffffff1681565b6000600560009054906101000a900473ffffffffffffffffffffffffffffffffffffffff16905090565b600b60009054906101000a900473ffffffffffffffffffffffffffffffffffffffff1681565b60135481565b601481565b600080339050601860008273ffffffffffffffffffffffffffffffffffffffff1673ffffffffffffffffffffffffffffffffffffffff16815260200190815260200160002060009054906101000a900460ff16158015610df15750601860008573ffffffffffffffffffffffffffffffffffffffff1673ffffffffffffffffffffffffffffffffffffffff16815260200190815260200160002060009054906101000a900460ff16155b8015610e095750601960009054906101000a900460ff165b1561124a57601960009054906101000a900460ff16610e5d576040517f08c379a0000000000000000000000000000000000000000000000000000000008152600401610e5490612fef565b60405180910390fd5b601254831115610ea2576040517f08c379a0000000000000000000000000000000000000000000000000000000008152600401610e9990613081565b60405180910390fd5b600f60009054906101000a900473ffffffffffffffffffffffffffffffffffffffff1673ffffffffffffffffffffffffffffffffffffffff168473ffffffffffffffffffffffffffffffffffffffff1614610f505760135483610f0486610bfe565b610f0e9190612ecc565b1115610f4f576040517f08c379a0000000000000000000000000000000000000000000000000000000008152600401610f46906130ed565b60405180910390fd5b5b60006201518042610f61919061313c565b9050600062015180601560008573ffffffffffffffffffffffffffffffffffffffff1673ffffffffffffffffffffffffffffffffffffffff16815260200190815260200160002054610fb3919061313c565b9050818114611047576000601660008573ffffffffffffffffffffffffffffffffffffffff1673ffffffffffffffffffffffffffffffffffffffff168152602001908152602001600020819055506000601760008573ffffffffffffffffffffffffffffffffffffffff1673ffffffffffffffffffffffffffffffffffffffff168152602001908152602001600020819055505b6064601660008573ffffffffffffffffffffffffffffffffffffffff1673ffffffffffffffffffffffffffffffffffffffff16815260200190815260200160002054106110c9576040517f08c379a00000000000000000000000000000000000000000000000000000000081526004016110c0906131df565b60405180910390fd5b60145485601760008673ffffffffffffffffffffffffffffffffffffffff1673ffffffffffffffffffffffffffffffffffffffff168152602001908152602001600020546111179190612ecc565b1115611158576040517f08c379a000000000000000000000000000000000000000000000000000000000815260040161114f90613271565b60405180910390fd5b42601560008573ffffffffffffffffffffffffffffffffffffffff1673ffffffffffffffffffffffffffffffffffffffff16815260200190815260200160002081905550601660008473ffffffffffffffffffffffffffffffffffffffff1673ffffffffffffffffffffffffffffffffffffffff16815260200190815260200160002060008154809291906111ec90613291565b919050555084601760008573ffffffffffffffffffffffffffffffffffffffff1673ffffffffffffffffffffffffffffffffffffffff16815260200190815260200160002060008282546112409190612ecc565b9250508190555050505b6000601960019054906101000a900460ff1680156112b25750601860008373ffffffffffffffffffffffffffffffffffffffff1673ffffffffffffffffffffffffffffffffffffffff16815260200190815260200160002060009054906101000a900460ff16155b80156113085750601860008673ffffffffffffffffffffffffffffffffffffffff1673ffffffffffffffffffffffffffffffffffffffff16815260200190815260200160002060009054906101000a900460ff16155b15611405576000600f60009054906101000a900473ffffffffffffffffffffffffffffffffffffffff1673ffffffffffffffffffffffffffffffffffffffff168373ffffffffffffffffffffffffffffffffffffffff161490506000600f60009054906101000a900473ffffffffffffffffffffffffffffffffffffffff1673ffffffffffffffffffffffffffffffffffffffff168773ffffffffffffffffffffffffffffffffffffffff1614905081156113de576064600754876113cd91906132d9565b6113d7919061313c565b9250611402565b8015611401576064600854876113f491906132d9565b6113fe919061313c565b92505b5b50505b60008185611413919061331b565b9050611420838783611f8e565b6000600190506000831180156114335750805b15611442576114418361224c565b5b8094505050505092915050565b60606004805461145e90612e43565b80601f016020809104026020016040519081016040528092919081815260200182805461148a90612e43565b80156114d75780601f106114ac576101008083540402835291602001916114d7565b820191906000526020600020905b8154815290600101906020018083116114ba57829003601f168201915b5050505050905090565b6114e9611e72565b600073ffffffffffffffffffffffffffffffffffffffff16600f60009054906101000a900473ffffffffffffffffffffffffffffffffffffffff1673ffffffffffffffffffffffffffffffffffffffff161461157a576040517f08c379a00000000000000000000000000000000000000000000000000000000081526004016115719061339b565b60405180910390fd5b600073ffffffffffffffffffffffffffffffffffffffff168173ffffffffffffffffffffffffffffffffffffffff16036115e9576040517f08c379a00000000000000000000000000000000000000000000000000000000081526004016115e090613407565b60405180910390fd5b80600f60006101000a81548173ffffffffffffffffffffffffffffffffffffffff021916908373ffffffffffffffffffffffffffffffffffffffff16021790555062015180426116399190612ecc565b6011819055507fe57f71636571365571c0eaeaeb54e1d9e0065804f056a57a2a29448524f7d18a8160405161166e9190612b7b565b60405180910390a150565b611681611e72565b600073ffffffffffffffffffffffffffffffffffffffff168373ffffffffffffffffffffffffffffffffffffffff16141580156116eb5750600073ffffffffffffffffffffffffffffffffffffffff168273ffffffffffffffffffffffffffffffffffffffff1614155b80156117245750600073ffffffffffffffffffffffffffffffffffffffff168173ffffffffffffffffffffffffffffffffffffffff1614155b611763576040517f08c379a000000000000000000000000000000000000000000000000000000000815260040161175a90613473565b60405180910390fd5b8273ffffffffffffffffffffffffffffffffffffffff16600960009054906101000a900473ffffffffffffffffffffffffffffffffffffffff1673ffffffffffffffffffffffffffffffffffffffff16146118315782600960006101000a81548173ffffffffffffffffffffffffffffffffffffffff021916908373ffffffffffffffffffffffffffffffffffffffff1602179055507f8db6104f0e4f7129597e0862c9d8e62a60df9898b5d99bf62ff95257f379a5c48360405161182891906134df565b60405180910390a15b8173ffffffffffffffffffffffffffffffffffffffff16600a60009054906101000a900473ffffffffffffffffffffffffffffffffffffffff1673ffffffffffffffffffffffffffffffffffffffff16146118ff5781600a60006101000a81548173ffffffffffffffffffffffffffffffffffffffff021916908373ffffffffffffffffffffffffffffffffffffffff1602179055507f8db6104f0e4f7129597e0862c9d8e62a60df9898b5d99bf62ff95257f379a5c4826040516118f69190613559565b60405180910390a15b8073ffffffffffffffffffffffffffffffffffffffff16600b60009054906101000a900473ffffffffffffffffffffffffffffffffffffffff1673ffffffffffffffffffffffffffffffffffffffff16146119cd5780600b60006101000a81548173ffffffffffffffffffffffffffffffffffffffff021916908373ffffffffffffffffffffffffffffffffffffffff1602179055507f8db6104f0e4f7129597e0862c9d8e62a60df9898b5d99bf62ff95257f379a5c4816040516119c491906135d3565b60405180910390a15b505050565b6000806119dd611e58565b90506119ea818585611f8e565b600191505092915050565b6119fd611e72565b60148211158015611a0f575060148111155b611a4e576040517f08c379a0000000000000000000000000000000000000000000000000000000008152600401611a459061364d565b60405180910390fd5b81600781905550806008819055507fab04935564bd7f43810636a24deb03e99f1516e9ba0b68115f9f8c8e3c08f3338282604051611a8d92919061366d565b60405180910390a15050565b600e5481565b611aa7611e72565b6064818385611ab69190612ecc565b611ac09190612ecc565b14611b00576040517f08c379a0000000000000000000000000000000000000000000000000000000008152600401611af7906136e2565b60405180910390fd5b82600c8190555081600d8190555080600e819055507f182101bc4f3117ca4bac06c236d9b9d22164fd259705bb944f9c4580cdba1d9b838383604051611b4893929190612f6c565b60405180910390a1505050565b611b5d611e72565b80601960006101000a81548160ff0219169083151502179055507f63e9bb35ae90a43113bc6f999f1c6395e88ee5f59560b46bd45815fe8560efae81604051611ba691906129ae565b60405180910390a150565b611bb9611e72565b80601960016101000a81548160ff0219169083151502179055507f52aea11b0a4f2006e58792e3ebe955ae85b222fe341cfef57b5d83eafb150ce581604051611c0291906129ae565b60405180910390a150565b60125481565b600d5481565b611c21611e72565b611c29610cec565b73ffffffffffffffffffffffffffffffffffffffff166108fc479081150290604051600060405180830381858888f19350505050158015611c6e573d6000803e3d6000fd5b50565b6000600160008473ffffffffffffffffffffffffffffffffffffffff1673ffffffffffffffffffffffffffffffffffffffff16815260200190815260200160002060008373ffffffffffffffffffffffffffffffffffffffff1673ffffffffffffffffffffffffffffffffffffffff16815260200190815260200160002054905092915050565b60176020528060005260406000206000915090505481565b601960019054906101000a900460ff1681565b611d2b611e72565b8060069081611d3a91906138ae565b5050565b611d46611e72565b600073ffffffffffffffffffffffffffffffffffffffff168173ffffffffffffffffffffffffffffffffffffffff1603611db85760006040517f1e4fbdf7000000000000000000000000000000000000000000000000000000008152600401611daf9190612b7b565b60405180910390fd5b611dc181612186565b50565b60145481565b60068054611dd790612e43565b80601f0160208091040260200160405190810160405280929190818152602001828054611e0390612e43565b8015611e505780601f10611e2557610100808354040283529160200191611e50565b820191906000526020600020905b815481529060010190602001808311611e3357829003601f168201915b505050505081565b600033905090565b611e6d83838360016123d3565b505050565b611e7a611e58565b73ffffffffffffffffffffffffffffffffffffffff16611e98610cec565b73ffffffffffffffffffffffffffffffffffffffff1614611ef757611ebb611e58565b6040517f118cdaa7000000000000000000000000000000000000000000000000000000008152600401611eee9190612b7b565b60405180910390fd5b565b6000611f058484611c71565b90507fffffffffffffffffffffffffffffffffffffffffffffffffffffffffffffffff811015611f885781811015611f78578281836040517ffb8f41b2000000000000000000000000000000000000000000000000000000008152600401611f6f93929190613980565b60405180910390fd5b611f87848484840360006123d3565b5b50505050565b600073ffffffffffffffffffffffffffffffffffffffff168373ffffffffffffffffffffffffffffffffffffffff16036120005760006040517f96c6fd1e000000000000000000000000000000000000000000000000000000008152600401611ff79190612b7b565b60405180910390fd5b600073ffffffffffffffffffffffffffffffffffffffff168273ffffffffffffffffffffffffffffffffffffffff16036120725760006040517fec442f050000000000000000000000000000000000000000000000000000000081526004016120699190612b7b565b60405180910390fd5b61207d8383836125aa565b505050565b600073ffffffffffffffffffffffffffffffffffffffff168273ffffffffffffffffffffffffffffffffffffffff16036120f45760006040517fec442f050000000000000000000000000000000000000000000000000000000081526004016120eb9190612b7b565b60405180910390fd5b612100600083836125aa565b5050565b600073ffffffffffffffffffffffffffffffffffffffff168273ffffffffffffffffffffffffffffffffffffffff16036121765760006040517f96c6fd1e00000000000000000000000000000000000000000000000000000000815260040161216d9190612b7b565b60405180910390fd5b612182826000836125aa565b5050565b6000600560009054906101000a900473ffffffffffffffffffffffffffffffffffffffff16905081600560006101000a81548173ffffffffffffffffffffffffffffffffffffffff021916908373ffffffffffffffffffffffffffffffffffffffff1602179055508173ffffffffffffffffffffffffffffffffffffffff168173ffffffffffffffffffffffffffffffffffffffff167f8be0079c531659141344cd1fd0a4f28419497f9722a3daafe3b4186f6b6457e060405160405180910390a35050565b60006064600c548361225e91906132d9565b612268919061313c565b905060006064600d548461227c91906132d9565b612286919061313c565b90506000818385612297919061331b565b6122a1919061331b565b90506122d033600960009054906101000a900473ffffffffffffffffffffffffffffffffffffffff1685611f8e565b6122fd33600a60009054906101000a900473ffffffffffffffffffffffffffffffffffffffff1684611f8e565b61232a33600b60009054906101000a900473ffffffffffffffffffffffffffffffffffffffff1683611f8e565b7f4303f1dc403b2d82b2ff82c450e8c03a40429f3fc282993ec09fc61951fea572600960009054906101000a900473ffffffffffffffffffffffffffffffffffffffff16600a60009054906101000a900473ffffffffffffffffffffffffffffffffffffffff16600b60009054906101000a900473ffffffffffffffffffffffffffffffffffffffff16876040516123c594939291906139b7565b60405180910390a150505050565b600073ffffffffffffffffffffffffffffffffffffffff168473ffffffffffffffffffffffffffffffffffffffff16036124455760006040517fe602df0500000000000000000000000000000000000000000000000000000000815260040161243c9190612b7b565b60405180910390fd5b600073ffffffffffffffffffffffffffffffffffffffff168373ffffffffffffffffffffffffffffffffffffffff16036124b75760006040517f94280d620000000000000000000000000000000000000000000000000000000081526004016124ae9190612b7b565b60405180910390fd5b81600160008673ffffffffffffffffffffffffffffffffffffffff1673ffffffffffffffffffffffffffffffffffffffff16815260200190815260200160002060008573ffffffffffffffffffffffffffffffffffffffff1673ffffffffffffffffffffffffffffffffffffffff1681526020019081526020016000208190555080156125a4578273ffffffffffffffffffffffffffffffffffffffff168473ffffffffffffffffffffffffffffffffffffffff167f8c5be1e5ebec7d5bd14f71427d1e84f3dd0314c0f7b2291e5b200ac8c7c3b9258460405161259b919061289a565b60405180910390a35b50505050565b600073ffffffffffffffffffffffffffffffffffffffff168373ffffffffffffffffffffffffffffffffffffffff16036125fc5780600260008282546125f09190612ecc565b925050819055506126cf565b60008060008573ffffffffffffffffffffffffffffffffffffffff1673ffffffffffffffffffffffffffffffffffffffff16815260200190815260200160002054905081811015612688578381836040517fe450d38c00000000000000000000000000000000000000000000000000000000815260040161267f93929190613980565b60405180910390fd5b8181036000808673ffffffffffffffffffffffffffffffffffffffff1673ffffffffffffffffffffffffffffffffffffffff16815260200190815260200160002081905550505b600073ffffffffffffffffffffffffffffffffffffffff168273ffffffffffffffffffffffffffffffffffffffff16036127185780600260008282540392505081905550612765565b806000808473ffffffffffffffffffffffffffffffffffffffff1673ffffffffffffffffffffffffffffffffffffffff168152602001908152602001600020600082825401925050819055505b8173ffffffffffffffffffffffffffffffffffffffff168373ffffffffffffffffffffffffffffffffffffffff167fddf252ad1be2c89b69c2b068fc378daa952ba7f163c4a11628f55a4df523b3ef836040516127c2919061289a565b60405180910390a3505050565b600081519050919050565b600082825260208201905092915050565b60005b838110156128095780820151818401526020810190506127ee565b60008484015250505050565b6000601f19601f8301169050919050565b6000612831826127cf565b61283b81856127da565b935061284b8185602086016127eb565b61285481612815565b840191505092915050565b600060208201905081810360008301526128798184612826565b905092915050565b6000819050919050565b61289481612881565b82525050565b60006020820190506128af600083018461288b565b92915050565b6000604051905090565b600080fd5b600080fd5b600073ffffffffffffffffffffffffffffffffffffffff82169050919050565b60006128f4826128c9565b9050919050565b612904816128e9565b811461290f57600080fd5b50565b600081359050612921816128fb565b92915050565b61293081612881565b811461293b57600080fd5b50565b60008135905061294d81612927565b92915050565b6000806040838503121561296a576129696128bf565b5b600061297885828601612912565b92505060206129898582860161293e565b9150509250929050565b60008115159050919050565b6129a881612993565b82525050565b60006020820190506129c3600083018461299f565b92915050565b6129d281612993565b81146129dd57600080fd5b50565b6000813590506129ef816129c9565b92915050565b60008060408385031215612a0c57612a0b6128bf565b5b6000612a1a85828601612912565b9250506020612a2b858286016129e0565b9150509250929050565b600080600060608486031215612a4e57612a4d6128bf565b5b6000612a5c86828701612912565b9350506020612a6d86828701612912565b9250506040612a7e8682870161293e565b9150509250925092565b600060208284031215612a9e57612a9d6128bf565b5b6000612aac84828501612912565b91505092915050565b600060ff82169050919050565b612acb81612ab5565b82525050565b6000602082019050612ae66000830184612ac2565b92915050565b600060208284031215612b0257612b016128bf565b5b6000612b108482850161293e565b91505092915050565b600080600060608486031215612b3257612b316128bf565b5b6000612b408682870161293e565b9350506020612b518682870161293e565b9250506040612b628682870161293e565b9150509250925092565b612b75816128e9565b82525050565b6000602082019050612b906000830184612b6c565b92915050565b600080600060608486031215612baf57612bae6128bf565b5b6000612bbd86828701612912565b9350506020612bce86828701612912565b9250506040612bdf86828701612912565b9150509250925092565b60008060408385031215612c0057612bff6128bf565b5b6000612c0e8582860161293e565b9250506020612c1f8582860161293e565b9150509250929050565b600060208284031215612c3f57612c3e6128bf565b5b6000612c4d848285016129e0565b91505092915050565b60008060408385031215612c6d57612c6c6128bf565b5b6000612c7b85828601612912565b9250506020612c8c85828601612912565b9150509250929050565b600080fd5b600080fd5b7f4e487b7100000000000000000000000000000000000000000000000000000000600052604160045260246000fd5b612cd882612815565b810181811067ffffffffffffffff82111715612cf757612cf6612ca0565b5b80604052505050565b6000612d0a6128b5565b9050612d168282612ccf565b919050565b600067ffffffffffffffff821115612d3657612d35612ca0565b5b612d3f82612815565b9050602081019050919050565b82818337600083830152505050565b6000612d6e612d6984612d1b565b612d00565b905082815260208101848484011115612d8a57612d89612c9b565b5b612d95848285612d4c565b509392505050565b600082601f830112612db257612db1612c96565b5b8135612dc2848260208601612d5b565b91505092915050565b600060208284031215612de157612de06128bf565b5b600082013567ffffffffffffffff811115612dff57612dfe6128c4565b5b612e0b84828501612d9d565b91505092915050565b7f4e487b7100000000000000000000000000000000000000000000000000000000600052602260045260246000fd5b60006002820490506001821680612e5b57607f821691505b602082108103612e6e57612e6d612e14565b5b50919050565b6000604082019050612e896000830185612b6c565b612e96602083018461299f565b9392505050565b7f4e487b7100000000000000000000000000000000000000000000000000000000600052601160045260246000fd5b6000612ed782612881565b9150612ee283612881565b9250828201905080821115612efa57612ef9612e9d565b5b92915050565b7f4d696e7420776f756c6420657863656564206d617820737570706c7900000000600082015250565b6000612f36601c836127da565b9150612f4182612f00565b602082019050919050565b60006020820190508181036000830152612f6581612f29565b9050919050565b6000606082019050612f81600083018661288b565b612f8e602083018561288b565b612f9b604083018461288b565b949350505050565b7f54726164696e67206973206e6f7420656e61626c656420796574000000000000600082015250565b6000612fd9601a836127da565b9150612fe482612fa3565b602082019050919050565b6000602082019050818103600083015261300881612fcc565b9050919050565b7f5472616e73616374696f6e20616d6f756e742065786365656473206d6178696d60008201527f756d206c696d6974000000000000000000000000000000000000000000000000602082015250565b600061306b6028836127da565b91506130768261300f565b604082019050919050565b6000602082019050818103600083015261309a8161305e565b9050919050565b7f57616c6c65742073697a65206c696d6974206578636565646564000000000000600082015250565b60006130d7601a836127da565b91506130e2826130a1565b602082019050919050565b60006020820190508181036000830152613106816130ca565b9050919050565b7f4e487b7100000000000000000000000000000000000000000000000000000000600052601260045260246000fd5b600061314782612881565b915061315283612881565b9250826131625761316161310d565b5b828204905092915050565b7f4461696c79207472616e73616374696f6e20636f756e74206c696d697420657860008201527f6365656465640000000000000000000000000000000000000000000000000000602082015250565b60006131c96026836127da565b91506131d48261316d565b604082019050919050565b600060208201905081810360008301526131f8816131bc565b9050919050565b7f4461696c79207472616e73616374696f6e20766f6c756d65206c696d6974206560008201527f7863656564656400000000000000000000000000000000000000000000000000602082015250565b600061325b6027836127da565b9150613266826131ff565b604082019050919050565b6000602082019050818103600083015261328a8161324e565b9050919050565b600061329c82612881565b91507fffffffffffffffffffffffffffffffffffffffffffffffffffffffffffffffff82036132ce576132cd612e9d565b5b600182019050919050565b60006132e482612881565b91506132ef83612881565b92508282026132fd81612881565b9150828204841483151761331457613313612e9d565b5b5092915050565b600061332682612881565b915061333183612881565b925082820390508181111561334957613348612e9d565b5b92915050565b7f4c6971756964697479207061697220616c726561647920736574000000000000600082015250565b6000613385601a836127da565b91506133908261334f565b602082019050919050565b600060208201905081810360008301526133b481613378565b9050919050565b7f496e76616c6964206c6971756964697479207061697220616464726573730000600082015250565b60006133f1601e836127da565b91506133fc826133bb565b602082019050919050565b60006020820190508181036000830152613420816133e4565b9050919050565b7f496e76616c69642077616c6c6574206164647265737300000000000000000000600082015250565b600061345d6016836127da565b915061346882613427565b602082019050919050565b6000602082019050818103600083015261348c81613450565b9050919050565b7f6d61726b6574696e670000000000000000000000000000000000000000000000600082015250565b60006134c96009836127da565b91506134d482613493565b602082019050919050565b600060408201905081810360008301526134f8816134bc565b90506135076020830184612b6c565b92915050565b7f6368617269747900000000000000000000000000000000000000000000000000600082015250565b60006135436007836127da565b915061354e8261350d565b602082019050919050565b6000604082019050818103600083015261357281613536565b90506135816020830184612b6c565b92915050565b7f6465760000000000000000000000000000000000000000000000000000000000600082015250565b60006135bd6003836127da565b91506135c882613587565b602082019050919050565b600060408201905081810360008301526135ec816135b0565b90506135fb6020830184612b6c565b92915050565b7f54617820726174652065786365656473206d6178696d756d206c696d69740000600082015250565b6000613637601e836127da565b915061364282613601565b602082019050919050565b600060208201905081810360008301526136668161362a565b9050919050565b6000604082019050613682600083018561288b565b61368f602083018461288b565b9392505050565b7f54617820646973747269627574696f6e206d7573742073756d20746f20313030600082015250565b60006136cc6020836127da565b91506136d782613696565b602082019050919050565b600060208201905081810360008301526136fb816136bf565b9050919050565b60008190508160005260206000209050919050565b60006020601f8301049050919050565b600082821b905092915050565b6000600883026137647fffffffffffffffffffffffffffffffffffffffffffffffffffffffffffffffff82613727565b61376e8683613727565b95508019841693508086168417925050509392505050565b6000819050919050565b60006137ab6137a66137a184612881565b613786565b612881565b9050919050565b6000819050919050565b6137c583613790565b6137d96137d1826137b2565b848454613734565b825550505050565b600090565b6137ee6137e1565b6137f98184846137bc565b505050565b5b8181101561381d576138126000826137e6565b6001810190506137ff565b5050565b601f8211156138625761383381613702565b61383c84613717565b8101602085101561384b578190505b61385f61385785613717565b8301826137fe565b50505b505050565b600082821c905092915050565b600061388560001984600802613867565b1980831691505092915050565b600061389e8383613874565b9150826002028217905092915050565b6138b7826127cf565b67ffffffffffffffff8111156138d0576138cf612ca0565b5b6138da8254612e43565b6138e5828285613821565b600060209050601f8311600181146139185760008415613906578287015190505b6139108582613892565b865550613978565b601f19841661392686613702565b60005b8281101561394e57848901518255600182019150602085019450602081019050613929565b8683101561396b5784890151613967601f891682613874565b8355505b6001600288020188555050505b505050505050565b60006060820190506139956000830186612b6c565b6139a2602083018561288b565b6139af604083018461288b565b949350505050565b60006080820190506139cc6000830187612b6c565b6139d96020830186612b6c565b6139e66040830185612b6c565b6139f3606083018461288b565b9594505050505056fea2646970667358221220c5044ba29f0482f94788ba4bd60b82120eff272b4bb441e2d0393248dddc3ae664736f6c63430008140033",
  "linkReferences": {},
  "deployedLinkReferences": {}
}